:100000000C942A000C9434000C9434000C943400AA
:100010000C9434000C9434000C9434000C94340090
:100020000C9434000C9434000C9434000C94340080
:100030000C9434000C9434000C9434000C94340070
:100040000C9434000C9434000C9434000C94340060
:100050000C94340011241FBECFE5D4E0DEBFCDBF29
:100060000E9451000C9473000C940000CF93DF9316
:1000700000D0CDB7DEB7882379F01A8219822981A2
:100080003A8122393340B9F3815029813A812F5F77
:100090003F4F3A832983F3CF0F900F90DF91CF9199
:1000A00008958E9A969A88EC0E94360088EC0E94F9
:1000B000360088EC0E94360088EC0E94360088ECFE
:1000C0000E943600969888EC0E94360088EC0E94C8
:1000D000360088EC0E94360088EC0E94360088ECDE
:0A00E0000E943600DFCFF894FFCF36
:00000001FF
