:100000000C942A000C9434000C9434000C943400AA
:100010000C9434000C9434000C9434000C94340090
:100020000C9434000C9434000C9434000C94340080
:100030000C9434000C9434000C9434000C94340070
:100040000C9434000C9434000C9434000C94340060
:100050000C94340011241FBECFE5D4E0DEBFCDBF29
:100060000E9441000C944B000C940000882341F046
:10007000E9EFF0E03197F1F700C000008150F6CFD2
:100080000895A29AAA9888EE0E943600AA9A88EE4D
:0A0090000E943600F7CFF894FFCF6E
:00000001FF
