:100000000C942A000C9434000C9434000C943400AA
:100010000C9434000C9434000C9434000C94340090
:100020000C9434000C9434000C9434000C94340080
:100030000C9434000C9434000C9434000C94340070
:100040000C9434000C9434000C9434000C94340060
:100050000C94340011241FBECFE5D4E0DEBFCDBF29
:100060000E9436000C946B000C9400001ABA8FEFBB
:1000700084BB23E030E081E090E0E8E1F9E0A1E139
:1000800069B3607170E049B3407250E06115710569
:1000900029F441155105A1F415BAF2CF603171056B
:1000A00079F74032510589F48217930734F0F5BB94
:1000B00023E030E080E090E001C015BA0196E0CF87
:1000C00040325105E9F6A5BB03C0452BC9F6E5BB97
:0A00D00026E030E0D5CFF894FFCF12
:00000001FF
