:100000000C942A000C9434000C9434000C943400AA
:100010000C9434000C9434000C9434000C94340090
:100020000C9434000C9434000C9434000C94340080
:100030000C9434000C9434000C9434000C94340070
:100040000C9434000C9434000C9434000C94340060
:100050000C94340011241FBECFE5D4E0DEBFCDBF29
:100060000E9436000C9459000C9400001ABA8FEFCD
:1000700084BB48E159E061E129B3207130E089B3E4
:10008000807290E02115310521F4009751F415BAE2
:10009000F3CF2031310581F78032910531F455BB22
:1000A000EBCF809749F765BBE7CF892B29F745BB95
:0600B000E3CFF894FFCF3E
:00000001FF
