:100000000C942A000C943F000C943F000C943F0089
:100010000C943F000C943F000C943F000C943F0064
:100020000C943F000C943F000C943F000C943F0054
:100030000C943F000C943F000C943F000C943F0044
:100040000C943F000C943F000C943F000C943F0034
:100050000C943F0011241FBECFE5D4E0DEBFCDBF1E
:1000600010E0A0E6B0E0ECE1F2E002C005900D92F5
:10007000AC37B107D9F70E94D9000C940C010C944D
:10008000000088BBA998A898AA9A82E08A95F1F7FF
:1000900000C0AA9885E88A95F1F70000089588BB0A
:1000A000A998A89AAA9A82E08A95F1F700C0AA981E
:1000B00085E88A95F1F7000008958FEF84BB15BAA3
:1000C00087BB18BA8FE097E20197F1F700C00000F4
:1000D00088E30E9441008CE00E94410081E00E9480
:1000E00041008FE097E20197F1F700C0000086E041
:1000F0000C944100CF93DF9300D000D0CDB7DEB792
:1001000090E8998390EC9A8394E99B8394ED9C8387
:100110006150FE01E80FF11D8081860F0E944100B1
:100120008FE097E20197F1F700C000000F900F9069
:100130000F900F90DF91CF9108951F93CF93DF938E
:10014000EC01FE01E10FF11D8081882321F00E9466
:100150004F001F5FF6CFDF91CF911F91089588E088
:100160000E9441002FE38DE093E0215080409040B9
:10017000E1F700C000008CE00E9441002FE38DE019
:1001800093E0215080409040E1F700C000000895C6
:10019000811102C088E101C08CE10E9441002FE77B
:1001A0008AE196E0215080409040E1F700C00000D5
:1001B00008950E945D0062E081E00E947A0080E67E
:1001C00090E00E949D0063E082E00E947A008EE64B
:1001D00090E00E949D00C0E0C23020F40E94AF0079
:1001E000CF5FFACF80E00E94C80080E00E94C80084
:1001F00081E00E94C80081E00E94C80081E00E9466
:10020000C80081E00E94C80080E00E94C80080E031
:0C0210000E94C800C0E0E2CFF894FFCFCD
:10021C00415652205455544F5249414C5300574566
:0C022C004C434F4D455320594F550000E6
:00000001FF
