:100000000C942A000C9434000C9434000C943400AA
:100010000C9434000C9434000C9434000C94340090
:100020000C9434000C9434000C9434000C94340080
:100030000C9434000C9434000C9434000C94340070
:100040000C9434000C9434000C9434000C94340060
:100050000C94340011241FBECFE5D4E0DEBFCDBF29
:100060000E9436000C9479000C9400001ABA8FEFAD
:1000700084BB80E090E042E050E061E070E0A8E105
:10008000B9E0C1E1E9B3E071F0E029B3207230E0FA
:10009000309729F42115310509F515BAF3CF70977A
:1000A00089F720323105F9F401966417750744F099
:1000B000B5BB893E23E092074CF041E050E008C018
:1000C00015BA42E050E021E030E004C080E090E06A
:1000D00020E030E0B9016F5F7F4FD4CF203231058F
:1000E00089F6C5BB03C0232B69F6A5BB80E090E071
:0600F000C9CFF894FFCF18
:00000001FF
